:100000000C9464000C9481000C9481000C944602C2
:100010000C9481000C9481000C9481000C94660275
:100020000C9481000C9481000C9481000C9481004C
:100030000C9481000C9481000C9481000C9481003C
:100040000C9481000C9481000C9481000C9481002C
:100050000C9481000C9481000C941A01A8EA802A67
:100060000040000A510A084059551801111E111B81
:10007000500B411B411F1101511F511B000000007B
:100080000880001A204000000000510F91394114EF
:100090009131411E410E411D500F802010154886A0
:1000A0004014780570855115510E5195518E21904F
:1000B00081205015484450C528C0282009504114BB
:1000C000208011110000001011241FBECFEFD4E0DA
:1000D000DEBFCDBF11E0A0E0B1E0ECEBF5E002C087
:1000E00005900D92A030B107D9F711E0A0E0B1E082
:1000F00001C01D92AD32B107E1F70E94A5010C9439
:10010000DC020C940000A62FA695B0E0A451BF4FCE
:100110008F3F59F0E82FF0E0EE0FFF1FE45AFF4F3A
:1001200025913491822F932F02C080E090E09D01B1
:100130002C5E3F4F70E061707070482F4F706115FA
:10014000710539F04295407F5C915F70452B4C936F
:1001500004C05C91507F452B4C93159692958295E7
:100160008F7089279F708927A217B30731F70895E9
:100170008FE08093E70087EB8093E50083E0809336
:10018000E60088EC8093E4000895FC0120E08AE01A
:1001900091E05FEF31913B3790F4313638F43323FF
:1001A00099F0432F4A52463350F401C03F7D432F0C
:1001B0004A52DC01A20FB11D4C932F5F05C0DC0138
:1001C000A20FB11D5C932F5F332321F0243110F374
:1001D000322F01C0322F81E0373008F480E0809365
:1001E0000401395F8AE091E04FEFFC01E20FF11D5D
:1001F00040832F5F2317C9F7EAE0F1E0E30FF11D19
:10020000108210920901309308018AE1809307015E
:1002100081E0809306010895CF93DF93BC01CAE08B
:10022000D1E0CE010E949002CE010E94C500DF9174
:10023000CF91089578941F920F920FB60F921124C8
:100240000F931F932F933F934F935F936F937F93DE
:100250008F939F93AF93BF93CF93DF93EF93FF93CE
:100260008091040180FF0EC080910701982F91506A
:1002700090930701882331F481E08093060186E0A2
:100280008093070180910601882309F443C0C0E0F0
:10029000D0E00AE011E0809109018C0F90910801F3
:1002A000891718F090910801891BF801E80FF11DDA
:1002B000808190E0BE010E9483002196C630D10566
:1002C00051F7209109018091080130E02A5F3F4FEA
:1002D00090E02817390729F4809104018260809307
:1002E00004018091090190910801282F2F5F20932C
:1002F0000901891719F481E08093090180910501B2
:10030000882321F081E08093F40002C01092F40071
:1003100010920601FF91EF91DF91CF91BF91AF91C4
:100320009F918F917F916F915F914F913F912F910D
:100330001F910F910F900FBE0F901F9018958093F3
:10034000050181E0809306010895F8940E94B800A9
:1003500084B1897F84B9259A15B8EF9AE79AECE6BB
:10036000F0E080818260808378940F2EF4E8AF2ED5
:10037000BB24F02D0FE610E00F2EFCE6EF2EFF243D
:10038000F02D0F2EF8E88F2E9924F02D0F2EFAEA7B
:100390006F2EF1E47F2EF02D44245524689447F805
:1003A0000F2EF1E8CF2EDD24F02D3324689431F8A0
:1003B000C5E2D1E080910301882381F4109202010B
:1003C00010920101109200012D98D8018C918D7F1F
:1003D0008C93F70180818B7F80834DC0813059F5EC
:1003E0001092020110920101109200018FEF98E02B
:1003F000ADE381509040A040E1F700C000002D9A8D
:10040000D50111961C921E92F40171826082D20174
:100410001C92F60180818D60808380818D7E808337
:10042000D8018C9182608C93F701808184608083F5
:100430003092030120C08230F1F4809102018130BA
:10044000D1F4F894D5018D919C91929582958F70FD
:1004500089279F7089279093010180930001109252
:100460000201F80180818D7F8083D7018C918B7F81
:100470008C932D98789485B190E0BE0140E150E0D6
:100480000E949702CE010E94C50094CF1F920F9246
:100490000FB60F9211248F93F894299B04C081E02A
:1004A000809303010CC02A9B0AC080910301823013
:1004B00021F481E08093020102C01092020178943D
:1004C0008F910F900FBE0F901F9018951F920F9253
:1004D0000FB60F9211248F939F93EF93FF93F8948D
:1004E00082E0809303011092020187EE93E09093E3
:1004F0000101809300012D98EFE6F0E080818D7F6F
:100500008083ECE6F0E080818B7F80837894FF919C
:10051000EF919F918F910F900FBE0F901F901895A4
:10052000FB01DC0105900D920020E1F70895FB012D
:100530009F01E8944230C4F04532B4F44A3029F4C3
:1005400097FB1EF4909581959F4F642F77270E940B
:10055000C802805D8A330CF0895D8193CB010097DE
:10056000A1F716F45DE251931082C9010C94B80210
:10057000DC01FC01672F71917723E1F7329704C00A
:100580007C916D9370836291AE17BF07C8F3089595
:10059000AA1BBB1B51E107C0AA1FBB1FA617B707A9
:1005A00010F0A61BB70B881F991F5A95A9F78095C5
:0C05B0009095BC01CD010895F894FFCF98
:00000001FF
