:100000000C9464000C9433020C9481000C948100D5
:100010000C9481000C9481000C9481000C945B0280
:100020000C9481000C9481000C9481000C9481004C
:100030000C9481000C9481000C9481000C9481003C
:100040000C9481000C9481000C9481000C9481002C
:100050000C9481000C9481000C941A01A8EA802A67
:100060000040000A510A084059551801111E111B81
:10007000500B411B411F1101511F511B000000007B
:100080000880001A204000000000510F91394114EF
:100090009131411E410E411D500F802010154886A0
:1000A0004014780570855115510E5195518E21904F
:1000B00081205015484450C528C0282009504114BB
:1000C000208011110000001011241FBECFEFD4E0DA
:1000D000DEBFCDBF11E0A0E0B1E0E4E9F5E002C091
:1000E00005900D92A030B107D9F711E0A0E0B1E082
:1000F00001C01D92AC32B107E1F70E94A5010C943A
:10010000C8020C940000A62FA695B0E0A451BF4FE2
:100110008F3F59F0E82FF0E0EE0FFF1FE45AFF4F3A
:1001200025913491822F932F02C080E090E09D01B1
:100130002C5E3F4F70E061707070482F4F706115FA
:10014000710539F04295407F5C915F70452B4C936F
:1001500004C05C91507F452B4C93159692958295E7
:100160008F7089279F708927A217B30731F70895E9
:100170008FE08093E70087EB8093E50083E0809336
:10018000E60088EC8093E4000895FC0120E089E01B
:1001900091E05FEF31913B3790F4313638F43323FF
:1001A00099F0432F4A52463350F401C03F7D432F0C
:1001B0004A52DC01A20FB11D4C932F5F05C0DC0138
:1001C000A20FB11D5C932F5F332321F0243110F374
:1001D000322F01C0322F81E0373008F480E0809365
:1001E0000301395F89E091E04FEFFC01E20FF11D5F
:1001F00040832F5F2317C9F7E9E0F1E0E30FF11D1A
:10020000108210920801309307018AE18093060161
:1002100081E0809305010895CF93DF93BC01C9E08D
:10022000D1E0CE010E949002CE010E94C500DF9174
:10023000CF91089578941F920F920FB60F921124C8
:100240000F931F932F933F934F935F936F937F93DE
:100250008F939F93AF93BF93CF93DF93EF93FF93CE
:100260008091030180FF0EC080910601982F91506C
:1002700090930601882331F481E08093050186E0A4
:100280008093060180910501882309F443C0C0E0F2
:10029000D0E009E011E0809108018C0F90910701F6
:1002A000891718F090910701891BF801E80FF11DDB
:1002B000808190E0BE010E9483002196C630D10566
:1002C00051F7209108018091070130E02A5F3F4FEC
:1002D00090E02817390729F4809103018260809308
:1002E00003018091080190910701282F2F5F20932F
:1002F0000801891719F481E08093080180910401B5
:10030000882321F081E08093F40002C01092F40071
:1003100010920501FF91EF91DF91CF91BF91AF91C5
:100320009F918F917F916F915F914F913F912F910D
:100330001F910F910F900FBE0F901F9018958093F3
:10034000040181E0809305010895F8940E94B800AB
:100350005198259A5998E89AE9E6F0E080818C7FD7
:10036000808378940F2EF4E8CF2EDD24F02D0F2E0D
:10037000F5E0AF2EBB24F02D0F2E8824FDEE9F2E2E
:10038000F02D0FE610E00F2EF8E86F2E7724F02DF9
:100390000F2EF0E24F2EF6E25F2EF02D22243324B2
:1003A000689427F80F2EF1E8EF2EFF24F02DC4E219
:1003B000D1E080910201882331F4D8018C918D7FA6
:1003C0008C932D9843C0813031F510920101109229
:1003D00000018FEF94E3ACE081509040A040E1F742
:1003E00000C000002D9AD60111961C921E92F301B6
:1003F00051824082D1011C92F70180818D608083FF
:1004000080818D7E8083D8018C9182608C93B2E054
:10041000B09302011BC08330C9F4F894F6018081C7
:100420009181B5010E947C02689DC001699D900D7B
:10043000789D900D112490930101809300011092FA
:100440000201D8018C918D7F8C937894809100016A
:1004500090910101BE014AE050E00E949702CE0156
:100460000E94C500A6CF1F920F920FB60F921124C3
:100470008F93F894289B18C080910201882321F45F
:1004800081E08093020110C0813021F482E08093EA
:1004900002010AC0823021F483E08093020104C08B
:1004A000833011F41092020178948F910F900FBE57
:1004B0000F901F9018951F920F920FB60F92112454
:1004C0008F939F93EF93FF93F8941092020187E824
:1004D00093E19093010180930001EFE6F0E08081C9
:1004E0008D7F80837894FF91EF919F918F910F90F2
:1004F0000FBE0F901F901895AA1BBB1B51E107C0A0
:10050000AA1FBB1FA617B70710F0A61BB70B881FA3
:10051000991F5A95A9F780959095BC01CD01089532
:10052000FB01DC0105900D920020E1F70895FB012D
:100530009F01E8944230C4F04532B4F44A3029F4C3
:1005400097FB1EF4909581959F4F642F77270E940B
:100550007C02805D8A330CF0895D8193CB0100972A
:10056000A1F716F45DE251931082C9010C94B80210
:10057000DC01FC01672F71917723E1F7329704C00A
:100580007C916D9370836291AE17BF07C8F3089595
:04059000F894FFCF0D
:00000001FF
