:100000000C9464000C9481000C9481000C943A02CE
:100010000C9481000C9481000C9481000C947D025E
:100020000C9481000C9481000C9481000C9481004C
:100030000C9481000C9481000C9481000C9481003C
:100040000C9481000C9481000C9481000C9481002C
:100050000C9481000C9481000C941A01A8EA802A67
:100060000040000A510A084059551801111E111B81
:10007000500B411B411F1101511F511B000000007B
:100080000880001A204000000000510F91394114EF
:100090009131411E410E411D500F802010154886A0
:1000A0004014780570855115510E5195518E21904F
:1000B00081205015484450C528C0282009504114BB
:1000C000208011110000001011241FBECFEFD4E0DA
:1000D000DEBFCDBF11E0A0E0B1E0EAEEF5E002C086
:1000E00005900D92A032B107D9F711E0A0E2B1E07E
:1000F00001C01D92AD34B107E1F70E94A5010C9437
:10010000F3020C940000A62FA695B0E0A451BF4FB7
:100110008F3F59F0E82FF0E0EE0FFF1FE45AFF4F3A
:1001200025913491822F932F02C080E090E09D01B1
:100130002C5E3F4F70E061707070482F4F706115FA
:10014000710539F04295407F5C915F70452B4C936F
:1001500004C05C91507F452B4C93159692958295E7
:100160008F7089279F708927A217B30731F70895E9
:100170008FE08093E70087EB8093E50083E0809336
:10018000E60088EC8093E4000895FC0120E08AE218
:1001900091E05FEF31913B3790F4313638F43323FF
:1001A00099F0432F4A52463350F401C03F7D432F0C
:1001B0004A52DC01A20FB11D4C932F5F05C0DC0138
:1001C000A20FB11D5C932F5F332321F0243110F374
:1001D000322F01C0322F81E0373008F480E0809365
:1001E0002401395F8AE291E04FEFFC01E20FF11D3B
:1001F00040832F5F2317C9F7EAE2F1E0E30FF11D17
:10020000108210922901309328018AE180932701FE
:1002100081E0809326010895CF93DF93BC01CAE269
:10022000D1E0CE010E94A702CE010E94C500DF915D
:10023000CF91089578941F920F920FB60F921124C8
:100240000F931F932F933F934F935F936F937F93DE
:100250008F939F93AF93BF93CF93DF93EF93FF93CE
:100260008091240180FF0EC080912701982F91502A
:1002700090932701882331F481E08093260186E062
:100280008093270180912601882309F443C0C0E0B0
:10029000D0E00AE211E0809129018C0F90912801B1
:1002A000891718F090912801891BF801E80FF11DBA
:1002B000808190E0BE010E9483002196C630D10566
:1002C00051F7209129018091280130E02A5F3F4FAA
:1002D00090E02817390729F48091240182608093E7
:1002E00024018091290190912801282F2F5F2093CC
:1002F0002901891719F481E0809329018091250152
:10030000882321F081E08093F40002C01092F40071
:1003100010922601FF91EF91DF91CF91BF91AF91A4
:100320009F918F917F916F915F914F913F912F910D
:100330001F910F910F900FBE0F901F9018958093F3
:10034000250181E0809326010895F8940E94B80069
:1003500084B1897F84B9259A2D9885B1866085B945
:10036000EF9AECE6F0E080818660808378940F2E2F
:10037000F4E8CF2EDD24F02D0FE610E00F2EFCE682
:100380002F2E3324F02D0F2EF8E88F2E9924F02DE8
:100390000F2EF5E26F2EF6E27F2EF02D4424552429
:1003A000689447F80F2EF1E8EF2EFF24F02DBB24C0
:1003B0006894B1F8C5E4D1E080912301882361F409
:1003C0001092220110922101109220012D98D80143
:1003D0008C918D7F8C9343C0813039F5109222012E
:1003E00010922101109220018FEF98E0ADE381502F
:1003F0009040A040E1F700C000002D9AD601119670
:100400001C921E92F40171826082D2011C92F7014B
:1004100080818D60808380818D7E8083D8018C91E6
:1004200082608C93B09223011AC08230C1F4809113
:1004300022018130A1F4F894F6018081918190939A
:1004400021018093200110922201D8018C918D7F8F
:100450008C93F10180818B7F80832D98789485B176
:1004600090E0BE0140E150E00E94AE02CE010E9449
:10047000C500A2CF1F920F920FB60F9211242F9397
:100480003F934F935F936F937F938F939F93AF931C
:10049000BF93EF93FF93F89480E091E00E94C50032
:1004A00085B181FD08C081E08093230189E091E05E
:1004B0000E94C50010C082FD0EC084E191E00E9440
:1004C000C50080912301823021F481E080932201D4
:1004D00002C0109222017894FF91EF91BF91AF91E9
:1004E0009F918F917F916F915F914F913F912F914C
:1004F0000F900FBE0F901F9018951F920F920FB67E
:100500000F9211248F939F93EF93FF93F89482E0BF
:10051000809323011092220187EE93E090932101B2
:10052000809320012D98EFE6F0E080818D7F80831D
:10053000ECE6F0E080818B7F80837894FF91EF91EF
:100540009F918F910F900FBE0F901F901895FB01F8
:10055000DC0105900D920020E1F70895FB019F0159
:10056000E8944230C4F04532B4F44A3029F497FBA1
:100570001EF4909581959F4F642F77270E94DF028C
:10058000805D8A330CF0895D8193CB010097A1F7E0
:1005900016F45DE251931082C9010C94CF02DC0184
:1005A000FC01672F71917723E1F7329704C07C91AA
:1005B0006D9370836291AE17BF07C8F30895AA1BAD
:1005C000BB1B51E107C0AA1FBB1FA617B70710F03E
:1005D000A61BB70B881F991F5A95A9F78095909570
:0A05E000BC01CD010895F894FFCF8F
:1005EA00696E7420766563740050494E4230204823
:1005FA004947480050494E4231204849474800007F
:00000001FF
