:100000000C942E000C944B000C944B000C94DA00D2
:100010000C944B000C944B000C944B000C94F90086
:100020000C944B000C944B000C944B000C944B0024
:100030000C944B000C944B000C944B000C944B0014
:100040000C944B000C944B000C944B000C944B0004
:100050000C944B000C944B000C944B0011241FBECD
:10006000CFEFD4E0DEBFCDBF11E0A0E0B1E0E0E72C
:10007000F2E002C005900D92A030B107D9F711E06F
:10008000A0E0B1E001C01D92A430B107E1F70E94E9
:100090004D000C9436010C940000F8942098259A99
:1000A0002898EF9AE79AECE6F0E0808181608083FF
:1000B0007894EFE6F0E0CCE6D0E00F2EF4E8EF2EF7
:1000C000FF24F02D00EA17E00F2EF8EE8F2EF3E05C
:1000D0009F2EF02D0F2EF8E8CF2EDD24F02DAA2430
:1000E000BB246894A7F821E830E042E08091030146
:1000F000882361F410920201109201011092000114
:1001000080818D7F808388818D7F888380910301AA
:10011000813059F5109202011092010110920001F4
:100120008FEF94E3ACE081509040A040E1F700C035
:1001300000002D9AD70111961C921E92D60111969D
:100140001C930E93D5011C92D9018C918D608C93D8
:100150008C918D7E8C938081826080838881826087
:1001600088832D984093030103C0823009F0BECFED
:1001700080910201813009F0B9CFF894D7018D91B7
:100180009C911197B8010E942201689DC001699D50
:10019000900D789D900D11249093010180930001A2
:1001A0001092020180818D7F808388818D7F88837A
:1001B00078949CCF1F920F920FB60F9211248F93B9
:1001C000F894289B03C081E080930301299B0AC017
:1001D00080910301823021F481E08093020102C00A
:1001E0001092020178948F910F900FBE0F901F9084
:1001F00018951F920F920FB60F9211248F939F9311
:10020000EF93FF93F89482E0809303011092020130
:1002100087EE93E09093010180930001EFE6F0E018
:1002200080818D7F8083ECE6F0E080818D7F80830C
:100230007894FF91EF919F918F910F900FBE0F9047
:100240001F901895AA1BBB1B51E107C0AA1FBB1F1B
:10025000A617B70710F0A61BB70B881F991F5A9552
:10026000A9F780959095BC01CD010895F894FFCF32
:00000001FF
