:100000000C9464000C9481000C9481000C944E02BA
:100010000C9481000C9481000C9481000C948F024C
:100020000C9481000C9481000C9481000C9481004C
:100030000C9481000C9481000C9481000C9481003C
:100040000C9481000C9481000C9481000C9481002C
:100050000C9481000C9481000C941A01A8EA802A67
:100060000040000A510A084059551801111E111B81
:10007000500B411B411F1101511F511B000000007B
:100080000880001A204000000000510F91394114EF
:100090009131411E410E411D500F802010154886A0
:1000A0004014780570855115510E5195518E21904F
:1000B00081205015484450C528C0282009504114BB
:1000C000208011110000001011241FBECFEFD4E0DA
:1000D000DEBFCDBF11E0A0E0B1E0ECE0F6E002C091
:1000E00005900D92A232B107D9F711E0A2E2B1E07A
:1000F00001C01D92AA34B107E1F70E94A5010C943A
:1001000004030C940000A62FA695B0E0A451BF4FA5
:100110008F3F59F0E82FF0E0EE0FFF1FE45AFF4F3A
:1001200025913491822F932F02C080E090E09D01B1
:100130002C5E3F4F70E061707070482F4F706115FA
:10014000710539F04295407F5C915F70452B4C936F
:1001500004C05C91507F452B4C93159692958295E7
:100160008F7089279F708927A217B30731F70895E9
:100170008FE08093E70087EB8093E50083E0809336
:10018000E60088EC8093E4000895FC0120E08CE216
:1001900091E05FEF31913B3790F4313638F43323FF
:1001A00099F0432F4A52463350F401C03F7D432F0C
:1001B0004A52DC01A20FB11D4C932F5F05C0DC0138
:1001C000A20FB11D5C932F5F332321F0243110F374
:1001D000322F01C0322F81E0373008F480E0809365
:1001E0002601395F8CE291E04FEFFC01E20FF11D37
:1001F00040832F5F2317C9F7ECE2F1E0E30FF11D15
:10020000108210922B0130932A018AE180932901F8
:1002100081E0809328010895CF93DF93BC01CCE265
:10022000D1E0CE010E94CC02CE010E94C500DF9138
:10023000CF91089578941F920F920FB60F921124C8
:100240000F931F932F933F934F935F936F937F93DE
:100250008F939F93AF93BF93CF93DF93EF93FF93CE
:100260008091260180FF0EC080912901982F915026
:1002700090932901882331F481E08093280186E05E
:100280008093290180912801882309F443C0C0E0AC
:10029000D0E00CE211E080912B018C0F90912A01AB
:1002A000891718F090912A01891BF801E80FF11DB8
:1002B000808190E0BE010E9483002196C630D10566
:1002C00051F720912B0180912A0130E02A5F3F4FA6
:1002D00090E02817390729F48091260182608093E5
:1002E000260180912B0190912A01282F2F5F2093C6
:1002F0002B01891719F481E080932B01809127014C
:10030000882321F081E08093F40002C01092F40071
:1003100010922801FF91EF91DF91CF91BF91AF91A2
:100320009F918F917F916F915F914F913F912F910D
:100330001F910F910F900FBE0F901F9018958093F3
:10034000270181E0809328010895F8940E94B80065
:1003500084B18C7F84B9259A2898EF9AE79AECE6C5
:10036000F0E080818160808378940FE610E00F2EAA
:10037000FCE6EF2EFF24F02D0F2EF4E8AF2EBB2469
:10038000F02D0F2EF0EA8F2EF7E09F2EF02D0F2E7E
:10039000F8E84F2E5524F02D22243324689427F8B2
:1003A0000F2EF1E8CF2EDD24F02D7724689471F81C
:1003B000C7E4D1E080912501882371F410922401D3
:1003C0001092230110922201D8018C918D7F8C9381
:1003D000F70180818D7F808380912501813061F5D7
:1003E0001092240110922301109222018FEF94E3C6
:1003F000ACE081509040A040E1F700C000002D9A91
:10040000D50111961C921E92F20191828082D10137
:100410001C92F60180818D60808380818D7E808337
:10042000D8018C9182608C93F701808182608083F7
:100430002D987092250102C0823019F58091240117
:100440008130F9F4F894D5018D919C91B4010E940A
:10045000B802E8EEF3E06E9FC0016F9F900D7E9FA3
:10046000900D112490932301809322011092240176
:10047000D8018C918D7F8C93F70180818D7F808353
:1004800078948091220190912301BE014AE050E0CE
:100490000E94D302CE010E94C5008CCF1F920F9202
:1004A0000FB60F9211242F933F934F935F936F9347
:1004B0007F938F939F93AF93BF93EF93FF93F894A2
:1004C00080E091E00E94C500289B07C081E08093F6
:1004D00025018BE091E00E94C500299B0EC086E1BA
:1004E00091E00E94C50080912501823021F481E0D5
:1004F0008093240102C0109224017894FF91EF911F
:10050000BF91AF919F918F917F916F915F914F912B
:100510003F912F910F900FBE0F901F9018951F9233
:100520000F920FB60F9211248F939F93EF93FF9327
:10053000F89482E0809325011092240187EE93E0E5
:100540009093230180932201EFE6F0E080818D7F7C
:100550008083ECE6F0E080818D7F80837894FF914A
:10056000EF919F918F910F900FBE0F901F90189554
:10057000AA1BBB1B51E107C0AA1FBB1FA617B707C9
:1005800010F0A61BB70B881F991F5A95A9F78095E5
:100590009095BC01CD010895FB01DC0105900D9201
:1005A0000020E1F70895FB019F01E8944230C4F078
:1005B0004532B4F44A3029F497FB1EF490958195A6
:1005C0009F4F642F77270E94B802805D8A330CF01A
:1005D000895D8193CB010097A1F716F45DE25193F9
:1005E0001082C9010C94F402DC01FC01672F7191A7
:1005F0007723E1F7329704C07C916D937083629109
:0C060000AE17BF07C8F30895F894FFCFB1
:10060C00534947204348414E47450050494E4230DC
:10061C0020484947480050494E42312048494748F4
:02062C000000CC
:00000001FF
