:100000000C9464000C9481000C9481000C943702D1
:100010000C9481000C9481000C9481000C94740267
:100020000C9481000C9481000C9481000C9481004C
:100030000C9481000C9481000C9481000C9481003C
:100040000C9481000C9481000C9481000C9481002C
:100050000C9481000C9481000C941A01A8EA802A67
:100060000040000A510A084059551801111E111B81
:10007000500B411B411F1101511F511B000000007B
:100080000880001A204000000000510F91394114EF
:100090009131411E410E411D500F802010154886A0
:1000A0004014780570855115510E5195518E21904F
:1000B00081205015484450C528C0282009504114BB
:1000C000208011110000001011241FBECFEFD4E0DA
:1000D000DEBFCDBF11E0A0E0B1E0E4EDF5E002C08D
:1000E00005900D92A631B107D9F711E0A6E1B1E074
:1000F00001C01D92A334B107E1F70E94A5010C9441
:10010000E8020C940000A62FA695B0E0A451BF4FC2
:100110008F3F59F0E82FF0E0EE0FFF1FE45AFF4F3A
:1001200025913491822F932F02C080E090E09D01B1
:100130002C5E3F4F70E061707070482F4F706115FA
:10014000710539F04295407F5C915F70452B4C936F
:1001500004C05C91507F452B4C93159692958295E7
:100160008F7089279F708927A217B30731F70895E9
:100170008FE08093E70087EB8093E50083E0809336
:10018000E60088EC8093E4000895FC0120E080E222
:1001900091E05FEF31913B3790F4313638F43323FF
:1001A00099F0432F4A52463350F401C03F7D432F0C
:1001B0004A52DC01A20FB11D4C932F5F05C0DC0138
:1001C000A20FB11D5C932F5F332321F0243110F374
:1001D000322F01C0322F81E0373008F480E0809365
:1001E0001A01395F80E291E04FEFFC01E20FF11D4F
:1001F00040832F5F2317C9F7E0E2F1E0E30FF11D21
:10020000108210921F0130931E018AE180931D011C
:1002100081E080931C010895CF93DF93BC01C0E27D
:10022000D1E0CE010E949C02CE010E94C500DF9168
:10023000CF91089578941F920F920FB60F921124C8
:100240000F931F932F933F934F935F936F937F93DE
:100250008F939F93AF93BF93CF93DF93EF93FF93CE
:1002600080911A0180FF0EC080911D01982F91503E
:1002700090931D01882331F481E080931C0186E076
:1002800080931D0180911C01882309F443C0C0E0C4
:10029000D0E000E211E080911F018C0F90911E01CF
:1002A000891718F090911E01891BF801E80FF11DC4
:1002B000808190E0BE010E9483002196C630D10566
:1002C00051F720911F0180911E0130E02A5F3F4FBE
:1002D00090E02817390729F480911A0182608093F1
:1002E0001A0180911F0190911E01282F2F5F2093EA
:1002F0001F01891719F481E080931F0180911B0170
:10030000882321F081E08093F40002C01092F40071
:1003100010921C01FF91EF91DF91CF91BF91AF91AE
:100320009F918F917F916F915F914F913F912F910D
:100330001F910F910F900FBE0F901F9018958093F3
:100340001B0181E080931C010895F8940E94B8007D
:1003500084B1897F84B9259A15B8EF9AECE6F0E06C
:1003600080818660808378940F2EF4E8CF2EDD2480
:10037000F02D0FE610E00F2EFCE62F2E3324F02D8B
:100380000F2EF8E88F2E9924F02D0F2EF5E26F2E08
:10039000F6E27F2EF02D44245524689447F80F2E62
:1003A000F1E8EF2EFF24F02DBB246894B1F8CBE3E5
:1003B000D1E080911901882361F410921801109204
:1003C0001701109216012D98D8018C918D7F8C9376
:1003D00043C0813039F51092180110921701109224
:1003E00016018FE79AE1A6E081509040A040E1F726
:1003F00000C000002D9AD60111961C921E92F401A5
:1004000071826082D2011C92F70180818D608083AD
:1004100080818D7E8083D8018C9182608C93B09294
:1004200019011AC08230C1F4809118018130A1F401
:10043000F894F601808191819093170180931601C1
:1004400010921801D8018C918D7F8C93F1018081DD
:100450008B7F80832D98789483B190E0BE0142E039
:1004600050E00E94A302CE010E94C500A2CF1F92BD
:100470000F920FB60F9211242F933F934F935F93D8
:100480006F937F938F939F93AF93BF93EF93FF935C
:1004900083B181FF08C081E08093190180E091E081
:1004A0000E94C50010C082FF0EC08BE091E00E9448
:1004B000C50080911901823021F481E080931801F8
:1004C00002C010921801FF91EF91BF91AF919F91DF
:1004D0008F917F916F915F914F913F912F910F90ED
:1004E0000FBE0F901F9018951F920F920FB60F928C
:1004F00011248F939F93EF93FF9382E080931901D0
:100500001092180187EE93E09093170180931601E3
:100510002D98EFE6F0E080818D7F8083ECE6F0E0BF
:1005200080818B7F8083FF91EF919F918F910F90BE
:100530000FBE0F901F901895FB01DC0105900D92E6
:100540000020E1F70895FB019F01E8944230C4F0D8
:100550004532B4F44A3029F497FB1EF49095819506
:100560009F4F642F77270E94D402805D8A330CF05E
:10057000895D8193CB010097A1F716F45DE2519359
:100580001082C9010C94C402DC01FC01672F719137
:100590007723E1F7329704C07C916D937083629169
:1005A000AE17BF07C8F30895AA1BBB1B51E107C0D4
:1005B000AA1FBB1FA617B70710F0A61BB70B881FF3
:1005C000991F5A95A9F780959095BC01CD01089582
:0405D000F894FFCFCD
:1005D40050494E423020484947480050494E423124
:0605E400204849474800D1
:00000001FF
