:100000000C9464000C9481000C9481000C945102B7
:100010000C9481000C9481000C9481000C94920249
:100020000C9481000C9481000C9481000C9481004C
:100030000C9481000C9481000C9481000C9481003C
:100040000C9481000C9481000C9481000C9481002C
:100050000C9481000C9481000C941A01A8EA802A67
:100060000040000A510A084059551801111E111B81
:10007000500B411B411F1101511F511B000000007B
:100080000880001A204000000000510F91394114EF
:100090009131411E410E411D500F802010154886A0
:1000A0004014780570855115510E5195518E21904F
:1000B00081205015484450C528C0282009504114BB
:1000C000208011110000001011241FBECFEFD4E0DA
:1000D000DEBFCDBF11E0A0E0B1E0E2E1F6E002C09A
:1000E00005900D92A632B107D9F711E0A6E2B1E072
:1000F00001C01D92AE34B107E1F70E94A5010C9436
:1001000007030C940000A62FA695B0E0A451BF4FA2
:100110008F3F59F0E82FF0E0EE0FFF1FE45AFF4F3A
:1001200025913491822F932F02C080E090E09D01B1
:100130002C5E3F4F70E061707070482F4F706115FA
:10014000710539F04295407F5C915F70452B4C936F
:1001500004C05C91507F452B4C93159692958295E7
:100160008F7089279F708927A217B30731F70895E9
:100170008FE08093E70087EB8093E50083E0809336
:10018000E60088EC8093E4000895FC0120E080E321
:1001900091E05FEF31913B3790F4313638F43323FF
:1001A00099F0432F4A52463350F401C03F7D432F0C
:1001B0004A52DC01A20FB11D4C932F5F05C0DC0138
:1001C000A20FB11D5C932F5F332321F0243110F374
:1001D000322F01C0322F81E0373008F480E0809365
:1001E0002A01395F80E391E04FEFFC01E20FF11D3E
:1001F00040832F5F2317C9F7E0E3F1E0E30FF11D20
:10020000108210922F0130932E018AE180932D01EC
:1002100081E080932C010895CF93DF93BC01C0E36C
:10022000D1E0CE010E94CF02CE010E94C500DF9135
:10023000CF91089578941F920F920FB60F921124C8
:100240000F931F932F933F934F935F936F937F93DE
:100250008F939F93AF93BF93CF93DF93EF93FF93CE
:1002600080912A0180FF0EC080912D01982F91501E
:1002700090932D01882331F481E080932C0186E056
:1002800080932D0180912C01882309F443C0C0E0A4
:10029000D0E000E311E080912F018C0F90912E01AE
:1002A000891718F090912E01891BF801E80FF11DB4
:1002B000808190E0BE010E9483002196C630D10566
:1002C00051F720912F0180912E0130E02A5F3F4F9E
:1002D00090E02817390729F480912A0182608093E1
:1002E0002A0180912F0190912E01282F2F5F2093BA
:1002F0002F01891719F481E080932F0180912B0140
:10030000882321F081E08093F40002C01092F40071
:1003100010922C01FF91EF91DF91CF91BF91AF919E
:100320009F918F917F916F915F914F913F912F910D
:100330001F910F910F900FBE0F901F9018958093F3
:100340002B0181E080932C010895F8940E94B8005D
:1003500084B18C7F84B9259A85B18C7F85B9EF9A59
:10036000E79AECE6F0E08081816080837894CFE6C4
:10037000D0E00CE610E00F2EF4E88F2E9924F02D3B
:100380000F2EF0EA6F2EF7E07F2EF02D0F2EF8E8FB
:100390002F2E3324F02D0F2EF1E8AF2EBB24F02D9D
:1003A0005524689451F80F2EFBE4EF2EF1E0FF2E58
:1003B000F02D0F2EF0E0CF2EF1E0DF2EF02D80910A
:1003C0002901882369F410922801109227011092C4
:1003D000260188818D7F8883D8018C918D7F8C93B5
:1003E00080912901813061F5109228011092270136
:1003F000109226018FEF94E3ACE081509040A04032
:10040000E1F700C000002D9AD40111961C921E92B3
:10041000F10171826082A0E8B0E01C92F501808158
:100420008D60808380818D7E8083888182608883D7
:10043000D8018C9182608C932D985092290102C032
:10044000823011F5809128018130F1F4F894F401A3
:1004500080819181B3010E94BB0228EE33E0629F4C
:10046000C001639F900D729F900D112490932701FE
:10047000809326011092280188818D7F8883D8017E
:100480008C918D7F8C937894809126019091270197
:10049000B7014AE050E00E94D602C6010E94C500A2
:1004A0008ECF1F920F920FB60F9211242F933F936E
:1004B0004F935F936F937F938F939F93AF93BF936C
:1004C000EF93FF93F89485E091E00E94C500289B8C
:1004D00007C081E08093290180E191E00E94C5007E
:1004E000299B0EC08BE191E00E94C50080912901FB
:1004F000823021F481E08093280102C0109228010B
:100500007894FF91EF91BF91AF919F918F917F91DF
:100510006F915F914F913F912F910F900FBE0F9070
:100520001F9018951F920F920FB60F9211248F9360
:100530009F93EF93FF93F89482E0809329011092A8
:10054000280187EE93E09093270180932601EFE640
:10055000F0E080818D7F8083ECE6F0E080818D7F0C
:1005600080837894FF91EF919F918F910F900FBEB0
:100570000F901F901895AA1BBB1B51E107C0AA1F23
:10058000BB1FA617B70710F0A61BB70B881F991F34
:100590005A95A9F780959095BC01CD010895FB016E
:1005A000DC0105900D920020E1F70895FB019F0109
:1005B000E8944230C4F04532B4F44A3029F497FB51
:1005C0001EF4909581959F4F642F77270E94BB0260
:1005D000805D8A330CF0895D8193CB010097A1F790
:1005E00016F45DE251931082C9010C94F702DC010C
:1005F000FC01672F71917723E1F7329704C07C915A
:100600006D9370836291AE17BF07C8F30895F89495
:02061000FFCF1A
:1006120049444C4500534947204348414E47450011
:1006220050494E423020484947480050494E4231D5
:0606320020484947480082
:00000001FF
